:020000040800F2
:1000000000000320BD050008213B0008253B000837
:10001000453B0008473B0008493B00080000000042
:1000200000000000000000000000000081990008AE
:100030004B3B000800000000119A00088D91000859
:100040000D0600080D0600080D0600080D06000844
:100050000D0600080D0600080D0600080D06000834
:100060000D0600080D0600080D0600080D06000824
:100070000D0600080D0600080D0600080D06000814
:100080000D0600080D0600080D0600080D06000804
:100090000D0600080D0600080D0600080D060008F4
:1000A0000D0600080D0600080D0600080D060008E4
:1000B0000D0600080D0600080D0600080D060008D4
:1000C0000D0600080D0600080D0600080D060008C4
:1000D0000D0600080D0600080D0600080D060008B4
:1000E0000D0600080D0600080D0600080D060008A4
:1000F0000D0600080D0600080D0600080D06000894
:100100000D0600080D0600080D0600080D06000883
:100110000D0600080D0600084D3B00080D060008FE
:100120000D0600080D0600080D0600080D06000863
:100130000D0600080D0600080D0600080D06000853
:100140000D0600080D0600080D0600080D06000843
:100150000D0600080D060008713B00080D0600089A
:100160000D0600080D0600080D0600080D06000823
:100170000D0600080D0600080D060008000000002E
:100180000D0600080D0600080D0600080D06000803
:100190000D0600080D0600080D0600080D060008F3
:0C01A000593B00080D060008653B0008F4
:1001B00010B5054C237833B9044B13B10448AFF3A1
:1001C00000800123237010BD000300200000000008
:1001D000A071020808B5034B1BB103490348AFF3F4
:1001E000008008BD0000000004030020A071020888
:1001F00001F0FF01102A2BDB10F0070F08D010F8D8
:10020000013B013A8B422DD010F0070F42B3F6D1DB
:10021000F0B441EA012141EA014122F007047FF0F4
:1002200000070023F0E80256083C85EA010586EA4B
:10023000010685FA47F5A3FA87F586FA47F6A5FA87
:1002400087F68EB9EED1F0BC01F0FF0102F0070293
:1002500032B110F8013B013A83EA010313B1F8D13E
:100260000020704701387047002D06BF354603381F
:10027000073815F0010F07D1013015F4807F02BF58
:10028000013015F4C03F0130F0BC0138704700BFA9
:1002900053B94AB9002908BF00281CBF4FF0FF31ED
:1002A0004FF0FF3000F088B9ADF1080C6DE904CED5
:1002B00000F006F8DDF804E0DDE9022304B0704741
:1002C0002DE9F047089D8E4604468846002B4AD10A
:1002D0008A42174662D9B2FA82F64EB1C6F12003BD
:1002E00001FA06F820FA03F3B74043EA0808B440DD
:1002F0004FEA174E1FFA87FCB8FBFEF1230C0EFBEA
:10030000118843EA084301FB0CF29A4209D9FB1811
:1003100001F1FF3080F0EA809A4240F2E780023932
:100320003B449A1AA3B2B2FBFEF00EFB102243EA42
:10033000024300FB0CFC9C4509D9FB1800F1FF327D
:1003400080F0D6809C4540F2D3803B44023840EA9E
:100350000140A3EB0C0300211DB1F3400022C5E9CD
:100360000032BDE8F0878B4205D90DB1C5E9000127
:1003700000210846F5E7B3FA83F1002946D1734519
:1003800002D3824200F20581841A6EEB030201203F
:100390009046002DE5D0C5E90048E2E7002A00F0CC
:1003A0009080B2FA82F6002E40F0A4808A1A030CE4
:1003B0004FEA174E80B2BCB20121B2FBFEFC0EFB2D
:1003C0001C2243EA024304FB0CF29A4207D9FB18B1
:1003D0000CF1FF3802D29A4200F2E080C4469B1A28
:1003E000B3FBFEF20EFB123340EA034302FB04F4BC
:1003F0009C4207D9FB1802F1FF3002D29C4200F266
:10040000CA8002461B1B42EA0C40A5E7C1F1200648
:100410008B4022FA06F71F430EFA01F420FA06F386
:100420002EFA06FE4FEA1749234300FA01F81FFA95
:1004300087FCBEFBF9F01C0C09FB10EE44EA0E44ED
:1004400000FB0CFEA64502FA01F209D93C1900F1A5
:10045000FF3A80F09C80A64540F2998002383C44E7
:10046000A4EB0E041FFA83FEB4FBF9F309FB13445B
:100470004EEA044403FB0CFCA44508D93C1903F1E3
:10048000FF3E80F08280A4457FD9023B3C4443EA92
:100490000040A4EB0C04A0FB02EC64457346E1466B
:1004A00062D35FD05DB1B8EB030264EB090404FAD8
:1004B00006F622FA01F31E43CC40C5E90064002190
:1004C0004FE7B1FBF2FC010C41EA0E4180B240EA79
:1004D00001423B4638463C46B846BE462026B1FB64
:1004E000F7F1A2EB080241EA0C4166E7014618E782
:1004F00010462CE7C6F120022EFA02F3B740B140B5
:1005000020FA02F24FEA174E0A43B3FBFEF8BCB2E0
:100510000EFB1833110C41EA034108FB04F9B0400B
:1005200089454FEA104380B23ED9791808F1FF3C63
:1005300001D289451FD8A1EB0901B1FBFEF909FBE6
:1005400004F80EFB191192B242EA0142424529D247
:10055000BA1809F1FF31C4D24245C2D2A9F1020151
:100560003A44BEE7F0459DD2BEEB02036CEB070CAC
:100570000138E14696E7A7EB09094944A8F1020CC6
:10058000B1FBFEF909FB04F8DBE773467FE7504651
:1005900066E70846FDE63B44023A33E7ACF1020C5D
:1005A0003B441CE749469CE7A1EB0901C446B1FB6B
:1005B000FEF909FB04F8C4E7704700BFDFF834D048
:1005C000002103E00C4B5B58435004310B480C4BAB
:1005D00042189A42F6D30B4A02E0002342F8043B49
:1005E000094B9A42F9D306F075F825F077FE01F031
:1005F000D5F970470000032068BC02080000002005
:10060000000300200003002010470120FEE7704790
:1006100008B500F047FCBDE8084000F0C9BB00F099
:1006200043BC0000024A00231360024A1370704763
:10063000200300201C03002000207047704710B5E5
:100640000421044625F095FB204610BD032821D83F
:10065000DFE800F0020B12190F4B1A68B2FA82F2AF
:10066000520904210D4806F0EFBC0B4B5A68B2FA50
:1006700082F252090821F5E7074B9A68B2FA82F232
:1006800052091021EEE7044BDA68B2FA82F25209FD
:100690002021E7E7704700BF24030020001002403C
:1006A000032821D8DFE800F0020B12190F4B1A685B
:1006B000003A18BF012204210D4806F0C5BC0B4BBF
:1006C0005A68003A18BF01220821F5E7074B9A68DB
:1006D000003A18BF01221021EEE7044BDA68003A15
:1006E00018BF01222021E7E7704700BF2403002044
:1006F0000010024003280DD8DFE800F00206080AC7
:100700000421054806F0A5BC0821FAE71021F8E706
:100710002021F6E7704700BF0010024008B503280B
:1007200011D8DFE800F0020A0C0E0421074806F099
:1007300085FC431E5842584108BD0821F6E71021A8
:10074000F4E72021F2E70020F3E700BF00100240A9
:1007500070B5084D00240126E0B2FFF7DFFF18B1A5
:100760002B68012B18BF2E600134052C05F1040500
:10077000F2D170BD24030020012380F87C1080F8A2
:100780007D30704770470000034B8164003918BF0B
:1007900001211970704700BFCB390120704700203C
:1007A0007047C36B0BB10846184770474FF6FF7090
:1007B0007047406803689B691847704770477047E7
:1007C0007047704700F062BD08B500F05FFD034B55
:1007D0000122C3F8AC005A6208BD00BF00680140A6
:1007E00010B5044600F070FC002384F84C3000F093
:1007F0004DFD034B0122C3F8AC005A6210BD00BF8F
:10080000006801400BF0C7B908B500F07FFC024A50
:1008100013680133136008BD3803002010B5084881
:100820000C46012106F00AFC0128064B04D11A7877
:1008300012B91870227010BD18700020FBE700BFBD
:10084000000002403403002000F00CBC00F072BC39
:1008500000F07ABC00F010BC10B504460BF050FF5D
:1008600023682046D3F8BC30BDE8104018470BF091
:1008700028B910B58821044625F07BFA204610BD22
:1008800010B590F8381090F87C400C4B8C421A78D8
:1008900009D03AB90A4A0B491488088810800C809C
:1008A00001221A7010BD002AFCD0054A054914889F
:1008B000088810800C800022F3E700BFCA390120AD
:1008C000D4390120D239012008B5094B1B888B424D
:1008D00003D8084B1B88934205D9074B074A0848A1
:1008E000A52125F059FA074B1980074B1A8008BD3E
:1008F000D4390120D2390120107202087372020823
:10090000B6720208D0390120CE3901202DE9F0411C
:100910000D460446194635B9154B164A164840F29D
:10092000013125F039FAC0E910520368134ED3F8AB
:100930009030003A18BF012232709847E569A5B19E
:100940002B681F68337873B1236820465B6B984728
:10095000236C834207D1616C094B28461A883B46B9
:10096000BDE8F0411847216CF6E7BDE8F08100BF13
:10097000FB72020833730208B6720208CC390120F8
:10098000D0390120034690F87E0018B158680368FA
:100990001B68184770470000012108B5002208466F
:1009A00008F008FD0A4B186028B90A4B0A4A2821AA
:1009B0000A4825F0F1F900220421012008F099FDF0
:1009C000074B186018B9074B034A2C21F0E708BD04
:1009D0004003002081730208CA730208F9730208F9
:1009E0003C0300205C740208024B4FF0FF31186892
:1009F00008F02ABD40030020014B186808F050BDE4
:100A000040030020024B0021186808F01DBD00BF04
:100A100040030020FFF7F0BF0348044900680023AB
:100A20001A4608F0A1BD00BF3C03002004000020CE
:100A300013B5084C00231A4601A9206808F0C5FD2B
:100A400020684FF0FF33002201A908F0BEFD02B07C
:100A500010BD00BF3C030020704770472DE9F041F6
:100A6000FF2BBDF8184000EB410105D120F8024BE7
:100A70008142FBD8BDE8F081174F04F4FC6604EA1C
:100A8000070C04F01F0403FB0CFC5E435C43DB43D8
:100A9000DBB2FF25B0F800E00EEA07020EF4FC68B6
:100AA00003FB02C203FB08680EF01F0EB2FBF5F257
:100AB000B8FBF5F83A4008F4FC6842EA080203FB88
:100AC0000E4EBEFBF5FE0EF01F0E42EA0E0220F89F
:100AD000022B8142DED8CDE700F8FFFFFF2B2DE986
:100AE000F04300EB420231D0DE43DFF870C0F6B2D3
:100AF000FF27058831F8028B05EA0C0408EA0C0E82
:100B0000744303FB0E4405F4FC6E08F4FC6906FB19
:100B10000EFE05F01F0503FB09EE08F01F087543E4
:100B2000B4FBF7F4BEFBF7FE04EA0C040EF4FC6E13
:100B300044EA0E0403FB0855B5FBF7F505F01F0565
:100B40002C4320F8024B8242D3D805E031F8023B17
:100B500020F8023B8242F9D8BDE8F08300F8FFFF9D
:100B60002DE9F74FDFF8C090019300EB42030093AB
:100B700004394FF0FF0E51F8043F019C1A0E6243F6
:100B8000551CC2F30F2212FA85F52D12FF2D10D13C
:100B90005C0909EA132204F4FC642243C3F3C4038E
:100BA00013430380009B02308342E4D803B0BDE8C6
:100BB000F08F002DF6D006884FEAD60C4FEA162AA1
:100BC0000CF0FC02EF43CCF3811CFFB20AF0F804F6
:100BD00042EA0C02F60044EA5A1412FB07F2C3F38D
:100BE000072A5FFA86F8C3F3074B14FB07F405FBEB
:100BF0000A22C6F34216DBB2B2FBFEF2D20005FBBC
:100C00000B4402F4FC6248EA06086B43B4FBFEF4B2
:100C100009EA0424224308FB0733B3FBFEF3C3F3C2
:100C2000C4031A430280BDE700F8FFFF70470020AD
:100C30007047002070477047704770470120704729
:100C40000C2070470C2303FB0100083070470C2375
:100C500003FB010008307047012070474FF4A95092
:100C600070474FF4A95303FB0100083070474FF45D
:100C7000A95303FB01000830704701207047102082
:100C8000704700EB01100830704700EB011008308E
:100C9000704710B54421044625F06BF8204610BD7E
:100CA000084603F035BC000010B5034B0360044652
:100CB0000AF059FC204610BDFC81020810B504461C
:100CC000FFF7F2FF2046142125F053F8204610BD0F
:100CD00010B5034B036004460AF045FC204610BDE6
:100CE000C881020810B50446FFF7F2FF204641F222
:100CF000285125F03EF8204610BD000010B5034BEA
:100D0000036004460AF02FFC204610BD94810208BF
:100D100010B50446FFF7F2FF2046182125F029F808
:100D2000204610BD10B5094B0360044600F5AA50DB
:100D30001430FFF7B9FF04F12C00FFF7C9FF04F1ED
:100D40001400FFF7DBFF204610BD00BF3082020811
:100D500008B50248FFF7E6FF08BD00BFC404002045
:100D600010B50446FFF7DEFF204641F6D43125F0EA
:100D700000F8204610BD000008B5034A034B0448A4
:100D8000442125F009F800BFC57402089E740208CA
:100D90000A75020808B5034A034B04483A2124F0B7
:100DA000FBFF00BF517502089E7402080A75020815
:100DB0002DE9F34103F07CF9054603F07DF90024A9
:100DC0000146234628462246009415F057F8284B42
:100DD000284A1A60204604F05DFD274D274B284A1B
:100DE00028489A6014F0B0FF2B68BFF35B8FDB07D5
:100DF00037D4284624F0BFFF98B3234C234B2360FD
:100E000004F1140000F5AA5707F2245604F12C0847
:100E10006060C4F80880E76026610AF0A5FB1C4BFF
:100E2000636140460AF0A0FB1A4BE36238460AF0C1
:100E30009BFB04F5805303F5AD60174AC3F85425B6
:100E400004F0ACFD224607F11401304604F09CFD8D
:100E5000304603F05DFB114824F0BCFF284624F027
:100E600096FF0F4802B0BDE8F041FFF7B9BC00BFE4
:100E7000343A0120CC030020C0040020EC03002001
:100E8000D003002008000020C404002030820208A3
:100E900094810208C8810208FC810208510D0008F3
:100EA00044030020704700000148FFF7ABBC00BFBF
:100EB00044030020F8B52C4D2C4E2D4B2D4F3360A4
:100EC00029462D4B41F8203B0024012205F10C005E
:100ED00068602C726C720BF07DFD3846EC621AF083
:100EE00051FA264812F070FC254B26499C864FF497
:100EF0008072C3E91324244A83F85C40C3E91B24AD
:100F0000224A9C66C3E91F12214AC3F88420214A61
:100F1000214983F87440C3E90157C3E90364C3E975
:100F20000544C3E90744C3E90944C3E90B44C3E9E1
:100F30000F44C3E91144C3E91544C3E918449C674D
:100F40001360F0220A8015490A8015494FF4A072F7
:100F50000A8014490A80144A1470012283F8382048
:100F6000124A1A60F8BD00BF78040020BC040020BB
:100F700000720208EC03002044820208D003002023
:100F800044030020000001010100000100045000A2
:100F90001A001400D8390120D4390120D039012099
:100FA000D2390120CE390120CA390120A880020897
:100FB0000020704781807047C18070470181704771
:100FC000418170477047704770477047704710B451
:100FD000C4880368121B84885B6D091B12B25DF81C
:100FE000044B09B218474FF6FF7383814FF0FF336C
:100FF00003621368C36110607047002070478B88DC
:10100000838001207047704780F82610704790F861
:101010002600704710B50022B1F90840B1F90A1056
:10102000028042808480C18010BD00220280428004
:101030008280C28070470177704780ED080A704750
:1010400080F82410704780F8251070470120704701
:10105000983070478C3070478430704770477047C5
:1010600070470000034B902283F85A2383F85823DB
:10107000704700BF00E100E0094A0A49D3680A4806
:10108000C3F30A03013B9BB20B801169C1F30A0150
:10109000013901801364536B43F0010353637047BC
:1010A000006801409A2000209820002010B52C21D3
:1010B000044624F05EFE204610BD10B5BC21044657
:1010C00024F057FE204610BD70B504460AF04FFDCF
:1010D00023689D6E11F05AF901462046A8472368FF
:1010E000064DD3F88C6000231A4629462046B047A7
:1010F000034B0122C3F8AC505A6270BD000000D00F
:10110000006801400AF01ABD0AF024BD0AF0DFBCF5
:101110000AF05DBE90F8252012B103685B6918479C
:10112000704790F825201AB190F8242002B1186079
:1011300070470000034B4FF080629A604FF080725E
:101140009A60704700E100E0084B4FF08062C3F8FE
:101150008820BFF34F8FBFF36F8F4FF08072C3F8BB
:101160008820BFF34F8FBFF36F8F704700E100E01F
:1011700070B50023124E8380124B0360336893F8DE
:101180005C2005460AB1186D00B9986803681B6BAE
:1011900098473368B0FA80F4186D640930B1036879
:1011A0001B6B9847002808BF44F001042CB9064B7C
:1011B000064A07482C2124F0EFFD284670BD00BFE9
:1011C000D83901209482020896750208F475020845
:1011D0002D76020870B5254E3568BFF35B8F15F08C
:1011E000010540D1304624F0C6FD00283BD0204CFC
:1011F000204B256104F13400C4E90035C4E90255EF
:10120000E584A562A58512F0C6FD04F158000DF035
:101210009FF8194BA3652046184B40F8843BFFF715
:10122000A7FF174BC4F884302433C4F88C304FF434
:10123000C803C4E928350023C4F8AC30C4F8B03082
:10124000C4F8B430C4F8B8300E480F4BC4F890500E
:10125000C4F89C50C4F8A850C4F8983024F0BAFDE3
:10126000304624F094FD024870BD00BF9C20002051
:10127000A0200020B08A0208B48202082C83020851
:10128000648A020861100008448A02080048704716
:10129000000000D038B5184C23685BB3174B184AD0
:1012A0001B6C11888B4216D1164B198806F082FDF3
:1012B000236893F86E200025013283F86E2083F8AE
:1012C0008050FFF7A9FB20680BF01AFA2846BDE80A
:1012D0003840FFF7BBB906F06DFD2468236820464F
:1012E0001B6A9847012384F880300020BDE838400D
:1012F000FFF7D6B938BD00BFD839012000680140DA
:101300009A2000209820002008B5074800224FF4BA
:10131000C04105F099FE054B00221A7005F00EFA47
:10132000034B186008BD00BF001802405C2100207C
:101330006021002038B5044650B90F4D2B7833B1E9
:1013400002464FF4C0410D4805F07EFE2C7038BDBA
:1013500005F0F4F90A4A1368C31AF92BF7D9064BBA
:1013600010601A78054882F001021A704FF4C041EB
:10137000BDE8384005F068BE5C210020001802403E
:101380006021002010B5044630B1A422002124F0D1
:1013900040FF6423C4F89C3010BD00002DE9F74FD6
:1013A0000446002800F0C78090F8803000EB8305E9
:1013B00040F8231001332A6403F00F0380F88030D3
:1013C00090F881300F2B9CBF013380F8813090F86A
:1013D000812000264FF0FF39844600EB820EB24692
:1013E0004F46B046B34630463146F44509D102BBBC
:1013F000C4E92322C4E9252294F8A10003B0BDE882
:10140000F08F5CF8045BDCF83C30281841F10001F7
:1014100013EB08084BF1000BAF4228BF2F46AA453B
:1014200038BFAA46994528BF99469E4238BF1E46F6
:10143000DBE700230192FEF72BFF019A0090C4F82E
:101440008C000546002340465946FEF721FF019ACD
:10145000C4F89000AAEB0707A6EB0906072A014685
:10146000C4F89470C4F89860C6D9594B4FF4FA6622
:10147000A5F16408B5FBF6F6042E38BF042698459E
:101480002FD8BE428CBF4FF0000E4FF0010E94F8E3
:10149000A0C0BCF1000F3CD0D4F884300A22B3FBCA
:1014A000F2F2322A38BF322203EB0209C4F89C90D0
:1014B000DFF81C91C84517D9BEF1000F27D172463D
:1014C00094F8A130002B59D1002A36D094F88230FC
:1014D000FF2B2AD1012384F8A130002384F8833024
:1014E00071E04FF0000ED2E7AB4294BFEB1A5B1BEA
:1014F000934234BF0023012340F6B73295420FD9FF
:10150000012F94BF00220122BEF1000F0AD0012258
:10151000D6E764229845C4F89C20CDD86346EBE713
:101520000022F1E7002BF2D1CAE70133DBB2012B35
:1015300084F88230CED1002060E784F88220BCF1AC
:10154000000F05D10123C4E9215084F8A030F2E74F
:10155000D4F88450009B1F201646E5FB00365B093B
:1015600043EAC663C4F88430D4F88830E3FB001241
:10157000490941EAC261C4F88810DCE7BCF1000FF8
:1015800023D0D4F884300A22B3FBF2F2502A38BFB9
:101590005022AB4294BFEB1A5B1B934215D8312DFE
:1015A00001D9BE4299D994F88330FF2B05D100238D
:1015B00084F8A13084F88230BDE70133DBB2132B0D
:1015C00084F88330F3D8012018E7312DEBD984E774
:1015D0003BF7030008B1D0F88C00704708B1D0F891
:1015E0009C00704708B1D0F89400704707B5064BCF
:1015F000ADF806001B68054801220DF1060107F051
:1016000089F903B05DF804FB0C000020AC21002038
:1016100010B5074C236853B107F0D8FD022806D156
:1016200020684FF0FF31BDE8104007F081BE10BDCB
:101630006821002010B5064C236843B107F0C6FDB1
:10164000022804D12068BDE8104007F094BE10BD08
:101650006821002010B5064C00222046042105F028
:10166000F3FC20460122BDE81040042105F0ECBC4B
:101670000008024038B50B4D044601220A484FF4D9
:10168000005105F0E1FC00220421284605F0DCFCB5
:101690002046FFF7ABFF28460122BDE83840042171
:1016A00005F0D2BC00080240000C024038B50B4DDA
:1016B000044600220A484FF4005105F0C5FC002200
:1016C0000421284605F0C0FC2046FFF78FFF28467E
:1016D0000122BDE83840042105F0B6BC00080240F4
:1016E000000C024005F030B80268034B9A4201D169
:1016F00005F018B8704700BF0010004008B572B67A
:10170000064800224FF4005105F09EFC03480122D8
:101710004FF4804105F098FCFEE700BF001802403E
:1017200010B5114A114C124B2046C4E90023002386
:101730004FF48042C4E90233C4E90423C4E9063308
:10174000236205F08FFE014608B1FFF7D7FF204660
:1017500006F09CF901460028F7D1204606F0B5F9BD
:101760000028F2D110BD00BF005C0040AC22002078
:10177000A086010070B540F2DC5094B007F094FDF3
:10178000FFF746FF142200210DEB020024F041FD7B
:10179000514805F00FFF514B514800220392196B3D
:1017A00041F001011963196B01F0010103910399E3
:1017B0000492196B41F0040119631B6B089203F04A
:1017C0000403049301244FF48076049B05961123AF
:1017D00005A9CDE906344FF4007505F0B1FA41488A
:1017E000059505A905F0ACFA224631463C483D4E28
:1017F00005F02AFC224629463A48394D05F024FCDA
:10180000204604F0A1FF09244FF40071304605F092
:1018100015FC0246A0B94FF48071284605F014FC6F
:10182000012004F091FF01224FF48071284605F059
:101830000BFC013C012004F087FF14F0FF04E3D10E
:1018400000224FF400712748274C284D05F0FCFB7F
:10185000012004F079FF01224FF48071204805F047
:10186000F3FB012004F070FF01224FF400711D48CA
:1018700005F0EAFB012004F067FFFFF751FF16486F
:10188000012101F04BFBFFF7D5FEFFF7C1FE01F090
:10189000E1FBFFF7CFFE05A801F080FE04F04EFF4C
:1018A0002368C31A632B0BD920609DF84230009047
:1018B0009DF84120BDF92010BDF91E0002F098FBF3
:1018C000109B2B4214BF01200020FFF733FD142092
:1018D00007F0EAFCD9E700BFAC2200200038024044
:1018E00000000240000802406421002000FFFF00C9
:1018F00010B594B0102200210AA824F08AFC14220A
:10190000002103A824F085FC224B002101911A6CD0
:1019100042F080521A641B6C03F080530193019BC8
:101920001D4B02911A6842F440421A601B6803F48E
:1019300040430293029B01214FF480330224CDE9FE
:1019400008134FF480030820CDE90E434FF4B4731D
:10195000CDE91003042308A81294139306F082FA29
:1019600008B1FFF7CBFE06F043FA0028F9D10F23A8
:10197000CDE9033405904FF4A0524FF48053052174
:1019800003A8CDE9062306F049FC0028E9D114B0EC
:1019900010BD00BF003802400070004080B59EB00E
:1019A00004F0A6FEFFF7A4FF1422002111A824F0E2
:1019B00030FC0024564B01941A6B564842F010023A
:1019C0001A631A6B02F010020192019A02941A6BC8
:1019D00042F020021A631A6B02F020020292029A6D
:1019E00003941A6B42F080021A631A6B02F08002B1
:1019F0000392039A04941A6B42F004021A631A6B5E
:101A000002F004020492049A05941A6B42F0010257
:101A10001A631A6B02F001020592059A06941A6B7A
:101A200042F002021A631A6B02F002020692069A50
:101A300007941A6B42F040021A631A6B02F04002DC
:101A40000792079A08941A6B42F008021A631B6BFC
:101A500003F00803089322463C21089B05F0F4FAA2
:101A60002D480122022105F0EFFA2B480122042122
:101A700005F0EAFA294801224FF4405105F0E4FA52
:101A8000224627484FF4C04105F0DEFA01253C23E9
:101A9000CDE911351F481394032311A9149302278C
:101AA00005F04EF91C4811A9CDE91175CDE9134493
:101AB00005F046F90423184811A9CDE91135CDE9FF
:101AC000134705F03DF94FF44053144811A9CDE9EF
:101AD0001135CDE9134705F033F94FF4C0431048F1
:101AE00011A9CDE91135CDE9134405F029F90D48C7
:101AF000139411A9CDE9115405F022F90A480B4BB2
:101B0000036004F087FE064690B1FFF7F7FD00BFC3
:101B1000003802400010024000080240000C024061
:101B20000018024000000240402300200030024024
:101B3000FFF7F6FDA74CDFF8E8C2A6624FF4827308
:101B4000C4E900C34FF4007E1823C4E906E320462D
:101B50000A23C4E90266C4E90466C4E90866E362CC
:101B600006F07CFE02460028CFD18F2339468DF83F
:101B7000440099488DF8283005F066FA4FF47A73DE
:101B80002A460AA9204606F0C5FE4FF47A732A4673
:101B900011A9204607F06AF88F48904C39462A462A
:101BA00005F052FA9DF844308D48D32B04BF8D4B7D
:101BB0001D7000230227C4E900032046C4E9027314
:101BC000C4E90A37C4E90C3304F0C0FF00289CD1F3
:101BD0000121204605F070F8002896D1824C834BF5
:101BE000A0600126C4E900364FF004091023C4E9BF
:101BF000039340224FF4C073C4E905234FF40061FE
:101C00004FF48053C4E908134FF40053E061A3621A
:101C10000AA907232046CDE90B39CDE90D37CDE9D7
:101C20000F770A9706F0FEFC054600287FF46DAF9B
:101C30004FF008084FF6FF7211A914900990204642
:101C4000CDE91286119606F00DFD304604F07CFDBC
:101C50004FF6FF7211A92046CDE91178CDE9136541
:101C600006F000FD03234FF6FF7211A92046CDE9CF
:101C70001138CDE9139506F0F5FC4FF40C73099378
:101C8000099B14934FF6FF7211A92046CDE91198D4
:101C9000139606F0E7FC40F26A51204606F000FD7C
:101CA000534B544A1E704FF0504323F8025B93424B
:101CB000FBD13422002111A824F0ABFA4E4C4F4B3B
:101CC0002561C4E9003501270923C4E905374FF030
:101CD0001D0C0323C4E907C340F20D1E40F2431359
:101CE000C4E909E340F2171840F247132046C4E95B
:101CF0000255C4E90B83A58684F8365005F078FFB9
:101D0000024600287FF401AFF021CDE912104FF414
:101D1000A07311900220CDE91430FF20CDE9160206
:101D20004FF480660520CDE918604FF05046CDE9AC
:101D30001A61204611A91C93ADF874208DF87650D5
:101D400006F00AF8044600287FF4DFAE04F079FBC1
:101D500021483A46042105F077F93A4628484FF4DD
:101D6000405105F071F9234A334623F8024B934260
:101D7000FBD1224B4FF05042C3F8AC2001225A62F3
:101D800007F012FAFEF744FCFEF741FC02F0C0F83F
:101D9000FFF7BAFA002007F093FA1A4B18600028F0
:101DA0003FF4B3AE184A1948002107F039FA184B2E
:101DB000186000283FF4A9AE164A1748002107F022
:101DC0002FFA164B186000283FF49FAE07F00EFA6A
:101DD000FEE700BFAC2100200008024000230020E5
:101DE00000B002406D21002078210020400100A0B9
:101DF0006C210020005802D004220020006801401D
:101E0000000C024068210020948302087517000826
:101E100074210020708302081F0600087021002032
:101E2000005001402DE9F04387B00E468DF8172091
:101E30000446E8B10368DBB1032564274FF00108CD
:101E40000DF11709CDE90187CDF80090A188206830
:101E50000123324605F0C8FB38B10120013D04F0F2
:101E600073FC15F0FF05EDD1012007B0BDE8F0834C
:101E70000520FAE72DE9F0430F4685B0164698464F
:101E80000446D0B10368C3B1BAB103254FF0640969
:101E9000CDE901890096A188206801233A4605F022
:101EA00033FC38B10120013D04F04EFC15F0FF0574
:101EB000EED1012005B0BDE8F0830520FAE738B582
:101EC00005460C4641B10A460123FF21FFF7D2FF28
:101ED00008B92378AB7138BD0520FCE737B540223F
:101EE000092105468DF80720FFF79CFFC0B904F0D3
:101EF00025FC044601230DF1070209212846FFF7BE
:101F0000B9FF68B99DF8073013F0400008D00120F0
:101F100004F01AFC04F012FC031B952BEAD90420F0
:101F200003B030BD2DE9F04186B005AE0023ADF819
:101F30001430B3700546C8B10368BBB103246427ED
:101F4000A046CDE901870096A988286801230422CC
:101F500005F04AFB38B10120013C04F0F5FB14F018
:101F6000FF04EED1012006B0BDE8F0810520FAE7BC
:101F700010B5044610B315484FF4007105F05EF833
:101F8000F0B113484FF4807105F058F8D0B11E231A
:101F90000322AE21204605F0C7FC70B114230222B3
:101FA0008221204605F0C0FC30B114230222D0214A
:101FB000204605F0B9FC38B9072010BD0520FCE724
:101FC0000820FAE70920F8E70620F6E700080240B3
:101FD0000000024038B51546044678B103686BB17D
:101FE0000A460C21FFF71EFF50B92A460D21204654
:101FF000FFF718FF003818BF012038BD0520FCE7A7
:102000000120FAE737B500230C468DF8033005466A
:10201000002867D0002965D00160AE2141603223DD
:102020000522204605F080FC30B12046FFF7A0FFD6
:102030000446204603B030BD0DF103012846FFF7EA
:102040003EFF04460028F4D19DF80330152B4BD1F8
:102050002846FFF743FF04460028EAD10A2004F08F
:1020600073FB224602212846FFF7DCFE08B101245B
:10207000DFE7224603212846FFF7D4FE0028F6D1E9
:102080001F2208212846FFF7CDFE04460028D0D1A4
:10209000032209212846FFF7C5FE04460028C8D1BF
:1020A00027220A212846FFF7BDFE04460028C0D19A
:1020B0003C2211462846FFF78DFF04460028B8D180
:1020C0002846FFF72FFF04460028B2D1782004F0FD
:1020D0003BFB022301AA21462846FFF7CBFE012342
:1020E000EB71A6E70524A4E70324A2E72DE9F0435A
:1020F0008846B3B091461F460546002856D00029B1
:1021000054D0002B52D0002A50D000233B7001AA9B
:1021100003230421FFF7AEFE0646002842D19DF8B6
:1021200004409DF8063084EA0302D20632D19DF8BD
:102130000530DB0636D04C46202C28BF202404EB8B
:10214000440302AA5B0007212846FFF793FE0246DC
:1021500070BB02AD08F104016B7828781B0243EADA
:102160000043A8780343C3F3110348F832302B79B6
:10217000E8781B0243EA004368790343C3F3110381
:1021800041F832300132D3B29C4205F10605E3D862
:102190003C7007E0E41A04F01F044C4528BF4C468D
:1021A000002CCCD1304633B0BDE8F0830526F9E7EA
:1021B0000646F7E730B50C4685B00546002846D000
:1021C000002944D0022303AA0021FFF753FEE0BBFD
:1021D0009DF80C3023709DF80D30637003AA032323
:1021E00004212846FFF746FE78BB9DF80C3003F02B
:1021F0001F03A3709DF80D3003F01F03E3709DF8DB
:102200000E3003F01F032371621D012308212846AD
:10221000FFF730FEC8B9022301AA09212846FFF7BB
:1022200029FE90B99DF80430A3719DF80530E37143
:1022300002AA02230C212846FFF71CFE28B99DF8AC
:10224000083023729DF80930637205B030BD052057
:10225000FBE773B50E460546002848D00368002BFF
:1022600045D000220921FFF7DDFD044648B90220D0
:1022700004F06AFA224602212846FFF7D3FD18B17E
:102280000124204602B070BD224603212846FFF7F4
:10229000C9FD0028F4D11F2208212846FFF7C2FDFE
:1022A0000028EDD1032209212846FFF7BBFD0028B5
:1022B000E6D127220A212846FFF7B4FD0028DFD106
:1022C000324631462846FFF785FE0028D8D12846F9
:1022D000FFF728FE04460028D2D1022301AA0021DC
:1022E0002846FFF7C7FDA02004F02EFAC9E7052411
:1022F000C7E700002DE9F043DFED4B7AADF5017D36
:1023000004464FEA810900EB8105AC4256D107EE45
:10231000101AB8EE476A01F1FF3E87EE867A002573
:10232000D0ED007A83ED007A01F18043013B9F00FC
:1023300000EB8303F8EE676AD3ED007ADFED3A5ADB
:10234000F8EE677A07EE10EA77EEE67AB8EE477AAB
:102350006B4687EE875A98469C46ACB2A14234D869
:102360001C46002085EE867A85B2A94243D81146E4
:10237000186841F8040B1FFA8EF50020B0EE087AB9
:10238000013084B2A5423ED80CEB8E01D319096806
:102390009FED250A196002EB0903F2EC017A9342E2
:1023A000A7EEA70AF9D180EE060A22F0A7FD889BC6
:1023B00083ED000A0DF5017DBDE8F083B4EC017AF0
:1023C000B8EE477A77EE877A9FE707EE104A50F823
:1023D0002560B8EE477AF0EE664AE5EE074A013529
:1023E00007EE906AF8EE677A77EEE47A75EEA75A10
:1023F000E8EC017AB1E7D4ED007A77EEC77A0130E4
:10240000E4EC017AB0E7D3ED007AD3ED016A77EE20
:10241000A67AD3ED026A77EEA67A0433C7EE876A0E
:10242000E1EC016AACE700BF000000002DE9F04FCD
:102430002DED088BADF2246D0DF1180ADDF86866FC
:1024400008EE903A00230C461746B0EE408A0493FB
:102450000593CAF800300DF11C080793002E00F018
:102460004382002535607560002800F03D82002918
:1024700000F03A82A2F12003602B00F23582B5EE23
:10248000C00AF1EE10FA40F22F8204AB08AA3946D6
:10249000CDF800A0FFF72EFF05ABCDF8008088AA8D
:1024A00039462046FFF726FFF8EE688A9DED049A2C
:1024B000F4EEC98AF1EE10FA94BF01232B46737132
:1024C00000F21282F7EE009AB4EEE99AF1EE10FAF9
:1024D00040F20A82DFED9F7A9FEDADAADFED9EAA62
:1024E00028EE278A4FEA5709C8EE0A7AFCEEE77A07
:1024F00017EE903AC8EE2A7A1FFA83F8FCEEE77AD4
:1025000017EE903A9CB2022C38BF0224C14528BF76
:10251000C1464C453ED3DFED917AB0EE670A9AEDA5
:10252000007AF5EE006A27EE267A0023B4EE697A87
:10253000F1EE10FAF7EE006A48BFB0EE667A0DF1E0
:10254000200E9C461D460122DEED016AF4EEC76AAC
:10255000F1EE10FA40F321819EED006AF4EEC66AB6
:10256000F1EE10FAC0F219819EED026AF4EEC66A2D
:10257000F1EE10FA40F3118190B24DB1411B89B2D6
:102580008C4200F20781884502D301338C449BB210
:10259000054602E14FF4007229460DF5846023F0F0
:1025A00038FEDFED6FBAA346FFEE008A1FFA8BF309
:1025B000994567D2631C9BB20DF584629FED697AE1
:1025C000DFED6A6A02EB8302994540F0A180002D9D
:1025D000A1D02B46DFED657AF4EEE78AF1EE10FA32
:1025E00099D407EE903A0DF5846202EB83029C4287
:1025F000B8EE676AD2ED007A28D2994526D90DF552
:10260000846202EB830212ED017AB0EE005AF0EE22
:10261000476AE7EEC56A0DF5846202EB8303D3EDEA
:10262000015A9FED4F5A75EEA66AF0EEE64AF4EEB7
:10263000C54AF1EE10FA09DD37EE657AF6EE005A7A
:1026400027EE257AC7EE265A36EE256A88EE060A68
:10265000B4EECA0AF1EE10FAFFF661AFB4EEEA0A80
:10266000F1EE10FA3FF65BAF01239FED487A67EE7B
:10267000877AF5EEC07AF1EE10FA40F1BC80DFED1A
:10268000377AC1E0DFED357A4FEA8B0208A8029273
:10269000FA1A00EB8B0C0021B0EE670AB0EE67BAB5
:1026A00092B21FFA81FE964523D3B4EEEB0AF1EE07
:1026B00010FA2AD9F4EEEB7AF1EE10FA25D920EED1
:1026C000270A039322F01AFCCBEE007A039B029AAE
:1026D0000DF584610A440BF1010BF4EEE78AF1EE8B
:1026E00010FAC2ED007A48BF1D4648BFF0EE678A77
:1026F0005CE7F0EC016ABCEC017AA6EEA60A0131B7
:10270000A6EE87BAE7EE077ACBE7DFED147ADEE7CD
:10271000F2EC017A12ED026AF4EEC67AF1EE10FAEA
:1027200013DB92ED006AF4EEC67AF1EE10FA0CDBE0
:1027300028EE876AF4EEC67AF1EE10FA05DBF4EEC5
:10274000E67AF1EE10FA3FF745AF01339BB23BE773
:102750000A46F9E60000704200005C4300000000F9
:10276000BD3786359A99593F3333B33ECDCC4C3E75
:102770006666E63F713D34C2FED4F241A4B0BD426C
:1027800000008C420000C94217B751380000C8420F
:1027900000000C42884538BF0546511C0232974262
:1027A0000EF1040ED4D8002B3FF45FAF06EE903A42
:1027B00007EE10CAB8EE666AB8EE477AC7EE066A48
:1027C00088EE260AB4EECA0AF1EE10FAC0F2928040
:1027D000B4EEEA0AF1EE10FA00F28C801FED1E7AD8
:1027E000F4EEC77AF1EE10FA00F186801FED197A47
:1027F00067EE877A01231FED1B7AF4EE477AF1EE3C
:1028000010FAC8BFF0EE477AFCEEE77A17EE902A8E
:1028100032717BB1DAED007A87EE897A5FED267A44
:10282000B4EEE77AF1EE10FA04DD22F00FFC01239A
:102830007080F371DDED057AF4EEE97AF1EE10FACD
:1028400052DD9AED006AB4EEE96AF1EE10FA4BDD62
:102850009DED077AB4EEE97AF1EE10FA44DDC6EEAA
:10286000096A87EE276A5FED3F7A86EE267AB4EE34
:10287000E77AF1EE10FA37DB5FED437AB4EEE77AF0
:10288000F1EE10FA30D85FED457A1FED456A67EE3C
:10289000277A67EE877AE7EE067A1FED487A77EEB9
:1028A000877A1FED497AF4EEC77AF1EE10FA1BDB56
:1028B0001FED4C7AF4EEC77AF1EE10FA14D81FED42
:1028C0004E7AF4EEC76AF1EE10FA0DDD1FED510AF3
:1028D000F4EE407AF1EE10FAD8BFB0EE670A22F0BB
:1028E000B5FB01233080B3710DF2246DBDEC088B74
:1028F000BDE8F08F0023B8E65FED5B7A012383E744
:10290000034A13680133012B38BF0123136070475A
:10291000802A00200C4A002313800C4A13800C4AA2
:1029200013800C4A002111600B4A538193819373E9
:1029300093845385938582F82E30084B084A19609A
:10294000084B1A60704700BF342400203224002056
:102950003024002064230020802A002060230020EF
:1029600000007A445C23002070B50A4E0A4D3046C0
:10297000FEF708FD094B00241C70094B85F829401F
:102980001C70084B30461C70FEF728FEC5E9070492
:1029900070BD00BF8C230020802A00204A23002025
:1029A0004923002048230020F8B5234E234F032558
:1029B00031683846FFF726FB044660BB204D85F89A
:1029C0002840B4FA84F4640985F82740FFF7CCFF67
:1029D0001C4A002313701C4A137003F0AFFE1B4BFC
:1029E000186003F0ABFE1A4B1A4A18603C231370B0
:1029F00085F8263003F0A2FE174B1860FFF78AFF18
:102A000095F827302B7203F099FE144B1860BDE83F
:102A1000F840FFF775BF306804F0CCFD022003F0EA
:102A200093FE306804F01EFD013D0A2003F08CFE89
:102A300015F0FF05BCD1C1E77C2A0020C42A002084
:102A4000802A00206D2300206C2300207C2300209E
:102A50007823002088230020842300208023002066
:102A60001FB5154A1368C31AF92B22D9106001A9A2
:102A70001248FFF79FFBE0B99DF809309DF80A1056
:102A80000F4A1B0443EA01639DF80C100B439DF8A9
:102A90000B1043EA0123D3619DF807309DF806101F
:102AA0001B0243EA01439DF808100B431362FFF732
:102AB00027FF05B05DF804FB74230020C42A002022
:102AC000802A0020F8B52A4E2A4D337885F8280050
:102AD000FF2B0C462CD1284F022238681423AE213C
:102AE00004F022FF254A48BB1070254A1368E31AF8
:102AF000B3F57A7F21D3396822481460FFF782FA50
:102B0000D8B901232B72204B30703C221A704FF43D
:102B10009E73EB841D4B85F828001C601C4B1C60C9
:102B2000FFF7F8FEFFF720FFBDE8F840FFF7E8BE2B
:102B30000133DBB2072B3370CDD8F8BD1378FF2BF0
:102B400010D13868FFF714FA0023012885F82730E0
:102B50002B72104B38BF012085F828001C60FFF74E
:102B6000D9FEE1E70133DBB2022B1370E5D9E8E7C8
:102B70006D230020802A00207C2A00206C23002066
:102B800078230020C42A00208823002084230020EA
:102B90007C230020802300201C4B002219784A2926
:102BA00002F1010229D15978752926D199786C2929
:102BB00023D1D2B240F2E97340F2EA71022A88BF0F
:102BC0000B461349827011441A2211F8011CC2707D
:102BD0000B4403F205230721B3FBF1F1C1EBC10163
:102BE0005B1A08BF07230371162340F2EA71437191
:102BF00042F21E030180C38070470C2A03F10303D5
:102C0000CCD1012240F2E973DBE700BFD083020898
:102C1000C48302082DE9F04FB64C8BB003F08EFD53
:102C200094F82F800646B8F1000F40F0388103F089
:102C300085FDB14B0390D3F800B0B04B59790191A9
:102C4000DA79987919889D78C246D146CDF80890EE
:102C5000DDF808E0039FA7EB0B0CBCF57A7F7AD276
:102C6000DFF898C2BAF1000F01D08CF80250B8F129
:102C7000000F01D0ACF80010B9F1000F02D001999B
:102C80008CF80510029909B18CF80600BEF1000F0E
:102C900004D08CF80720984AC2F800B01A68C4F82B
:102CA00032205A68964F012384F8303094F8273048
:102CB0007A60002B00F0ED80924B1B6841F2873266
:102CC000F31A934240F2E5808F4A136843F6972146
:102CD000F31A8B4240F2DD808C4B16601A788C4BD5
:102CE0008C48196894F82F8000258DF8175000F053
:102CF000C1FFB0F1000A0CBF01232B4684F82F302E
:102D000040F0CA8008AD0DF118094846FFF744FFAE
:102D1000CDF820A029467F48C5F804A000F0C1FFE7
:102D20000DF1170106467B4801F0A8F80643F6B2FC
:102D3000002E6CD08DF817A07648494601F018F89F
:102D4000002840F0958099E80300012385E80300FE
:102D50008DF817308CE00132D2B23B2A0BF57A7B2A
:102D60004FF0010E7FF676AF7044C0B23B28CDF82D
:102D700008E04FF000027FF66BAF019F7744F8B296
:102D80000190019F172FF14610467FF65FAF1A7929
:102D900093F803C0062A98BF72440CF1010C94BF4B
:102DA000D2B272465FFA8CFC022D1A7183F803C00E
:102DB00010D18A070ED16420B1FBF0F200FB121291
:102DC00092B20ABB4FF4C870B1FBF0F200FB1212D2
:102DD00092B2CAB1504A2A4412F801EC0022F445DA
:102DE0004FF00109104601927FF630AF4D44EDB22D
:102DF0004FF001070C2DDF70CA467FF626AF49441D
:102E000089B24D46C8461FE74FF01D0EE6E79DF814
:102E10001730002B90D0BDF82020BDF818309A4212
:102E20008AD325D89DF822209DF81A309A4283D360
:102E30001ED89DF823209DF81B309A42FFF47CAFEA
:102E400016D89DF825209DF81D309A42FFF474AFE6
:102E50000ED89DF826209DF81E309A42FFF46CAFE4
:102E600006D89DF827209DF81F309A42FFF464AFE2
:102E700003CD9DF81730C4F83200796084F8303003
:102E800094F82F30434502D194F830300BB9FFF756
:102E900037FD0BB0BDE8F08F84F83050F0E71A4AE8
:102EA0001368C31AB3F57A7FF3D304F132071060C5
:102EB000002318488DF82030394600F0F2FEDFF884
:102EC00038800E4D80B9134808A900F0D7FF58B9D3
:102ED0009DF8203084F83030D4F832302B607B6895
:102EE0006B60C8F80060D2E7002384F82F3001231C
:102EF000F0E700BF802A0020502300205423002048
:102F0000B22A00204C23002068230020782A0020C9
:102F10007C2A0020BC2A0020B8830208384B2DE907
:102F2000F7430024374FDFF82881C3E90044364BCC
:102F30000D460646382221463846C3E9004423F0B0
:102F400068F94FF4C8722146304823F062F92146EF
:102F50004FF4C8722E4823F05CF92E4BC8F800607D
:102F60001D703D1F0A2385F8283032232B823C2315
:102F700085F82630284B294E00221A60284B294A12
:102F80001A6068464FF0010947F8049CFFF704FEF9
:102F9000009B33604368736003F0D0FB224B85F8DD
:102FA00030901860214B18603368C7F82E30736872
:102FB000C5F836301E4B1C701E4B1C7003F0BEFB58
:102FC0001D4B186003F0BAFB1C4B18601C4B1C60B7
:102FD0001C4B1C601C4B1C70D8F800300BB1FFF769
:102FE000E3FC03F0ABFBFFF73BFD002385F82F303C
:102FF00003F0A4FB154B186003B0BDE8F08300BFDD
:10300000C42A0020842A0020BC2A0020E8280020AE
:1030100058270020782A0020602300205423002015
:103020005C23002000007A44502300204C23002021
:103030006D2300206C2300207C23002078230020B7
:1030400074230020702300206E23002068230020BA
:103050007C2A00202DE9F04F99B000235D4C8DF8BB
:10306000173003F06BFB94F82770064687B9FFF71B
:10307000D1FD594B1B6840F6B732F31A934204D97D
:10308000564B1B680BB1FFF78FFC19B0BDE8F08FF2
:1030900053480DF11703082208A9FFF727F8054642
:1030A00018B13146FFF70EFD18E04E4BDFF858819E
:1030B00018704D4B84F8280018709DF81730002BBD
:1030C00000F0F981494BC8F80060494EDFF82881CB
:1030D00018709DF81720EBB29A4202D8FFF79AFDBC
:1030E000D3E718AA4FEAC30902EBC303404653F8DB
:1030F0003C1C53F8402C6161A26196F800B0FEF7C9
:103100004DF930704046FEF769FAE0614046FEF73F
:1031100069FA96F800A02062BAF1000F40D1354B51
:103120001B7803F0010384F8293003F007FB0390B8
:103130003148FEF74FFA314A03991268304B8A1A28
:10314000B2F5FA6F93F800C063D398F88120072A8C
:103150005FD92C4A904225D9BCF1200F22D9624672
:10316000302A38BF3022103AD2B22448039201608C
:1031700011461B48FEF72EFF039A214B002848D129
:1031800017481A7084F82620FEF7CCFEFFF7ECFBF8
:10319000FFF7C0FB01232372FFF7B2FB013598E76D
:1031A0000123BEE796F800E0144ABEF1000F2FD1CC
:1031B000DFF840E09EF800E0BEF1000F28D177284C
:1031C00026D8BCF17E0F23D80CF120027F2ACBD960
:1031D0007F22CAE7802A0020802300207C2A00204A
:1031E000C42A00206D2300206C2300206E230020C1
:1031F0004A230020492300208C2300208423002020
:103200008823002007BD03007C2300200AD7A33CAD
:103210001160BAF1000F04D0BBF1000F01D1FFF72C
:1032200079FB09F160036B445FED086A53F83CAC2D
:10323000C04BC14A93ED007A07EE90AAB5EE407AF2
:10324000F8EE677AF1EE10FA08BFC3ED007A93ED5D
:10325000007A04BFB949116037EEC76AA6EE267A34
:103260009FEDB76A83ED007A37EEC77AD2ED007A28
:10327000F0EEC76A76EEE76AE6EE867ADFEDB16ACF
:103280009FEDB16AF4EE667AF1EE10FA48BFF0EE07
:10329000667A27EE067AB0EE086AC2ED007A67EE2B
:1032A000867A87EE270ADFEDA97A30EE270AB5EE97
:1032B000C00AF1EE10FA00F1D380B4EE660AF1EE26
:1032C00010FAC8BFB0EE660A21F0C0FE09F1600333
:1032D0009F4ADFF8C0E220820DEB0309138859F8FA
:1032E000401CDFF8B4924EF8231049F823A0642163
:1032F0000133B3FBF1F001FB1033964913800A88C8
:103300009548632A9CBF01320A800288B1F800C048
:10331000A4F824C001321FFA82FA3278A0F800A083
:10332000002A40F0A0808D4A1278002A40F09B804D
:103330000121BCF1640F84F8292021727FF42CAFA5
:10334000BAF1180F7FF628AF0022DFF814B2DFF8C9
:1033500014A202809918B1FBFCF00CFB1011013291
:1033600059F821005EF821104BF8040B642A4AF842
:10337000041BEFD106AB7A4800939FED720A79499E
:103380000023FFF753F863689DF81F209DF81E0087
:1033900084F82A200133012B38BF012363609DF894
:1033A0001C30A37384F82B00002A5FD0021EBDF9E5
:1033B0001AC084F82C0018BF0122A4F80AC008B172
:1033C000BDF91800B4F82A9096F800E0664BA08189
:1033D000B9F1000F4ED0DFF884A101218AF8001066
:1033E0004FF0000A83F800A0BEF1000F50D084F81F
:1033F0002910002A57D05D4B93ED007A07EE90CA52
:10340000B5EEC07AF1EE10FAF8EEE77A81BFDFEDA3
:10341000586A67EEA67ADFED576AE7EE267A9FEDE7
:10342000567AC3ED007AF4EEC77AF1EE10FA4BBF8C
:103430004FF02D0E4FF0320E69236E23F44503DB5F
:103440009C45D4BF00220122542811462EDDF445AC
:103450004FF000022DDB9C45CCBF0723042364E022
:103460009FED460A30E73A46022162E784F82C20B5
:103470009446A2E71978FF294ED001311970BEF1A8
:10348000000F4CD1CBB2022B02D9344B0021197062
:10349000324B1B7884F82930B9F1000FA9D1002BE9
:1034A00040D101233FE0114602233EE03A46052386
:1034B0003BE0062339E03046FFF7D2FAD8F8003077
:1034C00040F2DB52F31A93427FF608AE2C4A13689F
:1034D000F31AB3F57A7FFFF401AE2A4B2A48197824
:1034E0001660FEF7B6FE00287FF4DBAD274A13789E
:1034F000FF2B1CBF0133137001232372002384F8B8
:103500002830234B1E60FFF705FAFFF72DFA03F072
:1035100015F9FFF7A5FAE1E5BEF1000FB5D00123DB
:1035200084F8293003230022114684F82D2084F8E2
:103530002E1030E6602300205C23002000007A4437
:10354000CDCC4C3D0000C842000020420000484263
:10355000342400203224002030240020492300207D
:10356000C8250020382400204823002064230020A0
:10357000CDCCCC3D6666663F0000A0420000000056
:103580007023002088230020C42A00206E230020FE
:103590008423002058270020E828002070B5044626
:1035A00078B1EFF3108672B6064D0FCD0FC40FCD74
:1035B0000FC40FCD0FC495E8070084E8070006B9D3
:1035C00062B670BD802A002082B00E4B00220092AD
:1035D000596C41F480415964596C01F48041009167
:1035E00000990192196C41F0805119641B6C03F031
:1035F00080530193019B0F216FF0010002B003F093
:10360000C9B800BF003802400268094B9A4282B034
:103610000BD100230193074B1A6B42F480521A63BB
:103620001B6B03F480530193019B02B0704700BFF2
:10363000003002400038024007B50F4B02689A4242
:1036400016D10022A3F5F0430192196B41F4000159
:1036500019631B6B03F40003019305215A20019B9E
:1036600003F098F85A2003B05DF804EB03F0C4B8F7
:1036700003B05DF804FB00BF00B002402DE9F04349
:10368000044689B01422002103A822F0C2FD22685A
:10369000244B9A4243D1244C244800250095236BA7
:1036A00043F004032363236B03F004030093009BA4
:1036B0000195236B43F001032363236B03F00103A4
:1036C0000193019B4FF012094FF400734FF0010872
:1036D0000327042603A9CDE90339CDE90587079619
:1036E00003F02EFB4FF480731148079603A9CDE930
:1036F0000339CDE9058703F023FB0295236C43F4DE
:1037000000032364236C03F400030293029B236AE7
:1037100043F400032362236A23F40003236209B005
:10372000BDE8F083005C0040003802400008024021
:103730000000024008B502680A4B9A4210D10A4ABA
:103740000A48136C23F4000313644FF4007103F070
:10375000DBFBBDE8084006484FF4807103F0D4BBA2
:1037600008BD00BF005C0040003802400008024075
:1037700000000240F0B599B004461422002107A8C9
:1037800022F047FD30220DEB0200002122F041FD26
:1037900022685A4B9A4240F0AF8008230C93C02312
:1037A0001093042312930CA84FF40033159304F0E4
:1037B0000DFE08B1FDF7A2FF514B524800250095C0
:1037C0005A6C42F080625A645A6C02F08062009235
:1037D000009A01951A6B42F020021A631A6B02F0EC
:1037E00020020192019A02951A6B42F001021A63BB
:1037F0001A6B02F001020292029A03951A6B42F0D0
:1038000002021A631A6B02F002020392039A0495F1
:103810001A6B42F040021A631A6B02F040020492E3
:10382000049A05951A6B42F004021A631A6B02F0AF
:1038300004020592059A06951A6B42F008021A6373
:103840001B6B03F00803069302240E26069B0B96BF
:103850004FF4806307A9CDE90734CDE9095403F09B
:103860006FFA41F6580328480B9607A9CDE90734AB
:103870000927CDE9095403F063FA032323480B9782
:1038800007A9CDE90734CDE9095403F059FA4FF4FB
:1038900070631E480B9607A9CDE90734CDE909549A
:1038A00003F04EFA4FF40C6319480B9607A9CDE9C3
:1038B0000734CDE9095403F043FAC02315480B96A9
:1038C00007A9CDE90734CDE9095403F039FA0823F3
:1038D00011480B9607A9CDE90734CDE9095403F047
:1038E0002FFA4FF4A0530A480B9707A9CDE90734E4
:1038F000CDE9095403F024FA19B0F0BD0068014085
:10390000003802400014024000000240000402405F
:103910000018024000080240000C024010B50446A6
:1039200088B01422002103A822F073FC2268144BF3
:103930009A4223D103F56843002101915A6C114842
:1039400042F480125A645A6C02F480120192019A75
:1039500002911A6B42F020021A631B6B03F02003E2
:103960000293029B4FF4607202230321CDE90323EB
:103970000523CDE9061303A903F0E2F908B010BD51
:1039800000500140001402402DE9F04188B00023AE
:103990000593334B1C68002C5FD14FF00108C3F82E
:1039A0000080304B01949A6B2F4842EA08029A63D8
:1039B0009A6B02EA08020192019A02941A6B42F091
:1039C00002021A631B6B03F002030C250293022709
:1039D0000326029B0DEB05016023CDE90337CDE9FA
:1039E000066503F0ADF94FF63F03204807950DEB50
:1039F0000501CDE90337CDE9054603F0A1F91C48DF
:103A000007950DEB0501CDE90387CDE9054603F0E8
:103A100097F948F23313174807950DEB0501CDE9E7
:103A20000337CDE9054603F08BF94FF6837312484F
:103A300007950DEB0501CDE90337CDE9054603F008
:103A40007FF94CF203730D4807950DEB0501CDE9A5
:103A50000337CDE9054603F073F908B0BDE8F081FE
:103A6000CC2A00200038024000040240001402402A
:103A7000000802400018024000100240000C024002
:103A800070B588B000230293204B1A6C42F01002EC
:103A90001A641B6C03F010030293054601A903A8E6
:103AA000029B04F075FC069B4BBB04F051FC184EC6
:103AB000184B336040F2E733F360174BB0FBF3F37E
:103AC000013B7360304600233361B360B36105F09E
:103AD00097FA044680B9304605F06CF9044658B9A7
:103AE000362002F089FE0F2D0DD8224629463620B9
:103AF00002F050FE094B1D60204608B070BD04F076
:103B000027FC4000D3E70124F6E700BF003802405D
:103B1000D02A00200010004040420F001800002072
:103B200070470000064800224FF4005108B503F02A
:103B30008BFA034801224FF4804103F085FAFEE737
:103B400000180240FEE7FEE7FEE77047014805F077
:103B50006FB900BFD02A0020014804F0A0B800BF10
:103B600004220020014803F01DB800BF00230020FC
:103B7000014802F02DBF00BF642B002001207047D8
:103B800008B522F0A5FB162303604FF0FF3008BDF7
:103B900008B522F09DFB16230360FEE770B50D46C5
:103BA00014460E46731B9C4201DC204670BDAFF3E9
:103BB000008006F8010BF5E770B50D4614460E4679
:103BC000731B9C4201DC204670BD16F8010BAFF35D
:103BD0000080F5E74FF0FF3070474FF400534B6023
:103BE0000020704701207047002070470A4A116882
:103BF00008B5034609B909491160106869460344CC
:103C00008B4206D922F064FB0C2303604FF0FF3097
:103C100008BD1360FCE700BF182B002010470120EF
:103C2000030903EB830300F00F0000EB4300C0B275
:103C30007047F0B10388A3F5FA639BB2632B17D8E2
:103C40008378013B0B2B13D8C378013B1E2B0FD875
:103C50000379013B062B0BD84379172B08D88379BE
:103C60003B2B05D8C0793B288CBF00200120704732
:103C70000020704710B50446084674B169B10023AE
:103C80002160D021A271E371A1806423032203F09B
:103C90004BFE20B90123E37110BD0420FCE7022094
:103CA000FAE710B50C4686B0014600285CD0002C1F
:103CB0005AD00068002857D007236422CDE901328A
:103CC00004AB009300228988012303F01DFD024606
:103CD00000284BD19DF8100000F07F00FFF7A0FFF7
:103CE000E0719DF8110000F07F00FFF799FF9DF84B
:103CF0001210A0714B0632D501F01F00FFF790FFA4
:103D00000C2808BF002011F0200118BF0C21084426
:103D1000C0B260719DF8130000F00700FFF780FF4C
:103D200020719DF8140000F03F00FFF779FFE0706C
:103D30009DF8150000F01F00FFF772FFA0709DF8BE
:103D40001600FFF76DFF00F5FA6020802046FFF7B0
:103D500070FF002808BF0322104606B010BD01F016
:103D60003F00FFF75DFFD4E70422F5E70122F3E708
:103D70002DE9F041044688B000287BD00568002D6D
:103D800078D00846FFF755FF002873D0CA790A2378
:103D9000B2FBF3F003FB102242EA00128DF8182068
:103DA0008A79B2FBF3F003FB102242EA00128DF88D
:103DB00019204A79B2FBF3F003FB102242EA001209
:103DC0008DF81A200A79B2FBF3F003FB102242EAC5
:103DD00000128DF81B20CA78B2FBF3F003FB10220F
:103DE00042EA00128DF81C208A78B2FBF3F003FB44
:103DF000102242EA00128DF81D200A883032D2B219
:103E00004FF06408B2FBF3F103FB11220723CDE965
:103E1000013806AB42EA011200938DF81E202846B5
:103E2000A1880123002203F0DFFB054620BBA37914
:103E3000E3B901260DF11707CDF808800196009728
:103E4000A188206833460F2203F05EFC70B9CDE9EB
:103E500001689DF81730009703F07F038DF8173045
:103E6000A188206833460F2203F0BEFB284608B025
:103E7000BDE8F0810425F9E70125F7E770B50D46A7
:103E800086B00446E0B10068D0B1C9B1A37901267B
:103E9000002B4FF06403CDE901630DF1170300938C
:103EA0000CBF0F220022A188334603F02DFC48B935
:103EB0009DF81730DB43C3F3C0132B7006B070BD01
:103EC0000420FBE73046F9E7054B1A685206FCD59B
:103ED0005A6922F080025A61024B00221A70704720
:103EE00000100140202B0020064A536923F0800374
:103EF0005361054B00221A70044A136801331360A2
:103F0000704700BF00100140202B00201C2B002018
:103F100030B589B00025314B00951A6B3048314CD3
:103F200042F001021A631A6B02F001020092009A39
:103F300001955A6C42F010025A645A6C02F0100259
:103F40000192019A02951A6B42F480021A631B6B6C
:103F500003F480030293029B4FF4C0620223CDE975
:103F600003230122CDE9052303A90723079302F0C8
:103F7000E7FE04F0FDF94FF4E13300F56140B0FBDA
:103F8000F3F003F18043A3F5324342F20802986054
:103F90001D615D61DA6003F5AA33B83323604FF029
:103FA00000614023C4E9011320464FF48063C4E953
:103FB0000435C4E90655C4E90855E56002F050FC33
:103FC000094BE3632A46094BE3640521462002F0CE
:103FD000E1FB462002F010FC09B030BD0038024081
:103FE00000000240642B0020C93E0008E93E0008A2
:103FF000F0B5194E347885B004F0FF0734B1174A94
:10400000136801331360002005B0F0BD5B4203F07C
:1040100002031A43CDE901120A9B114A114D009087
:1040200040211148012422F07BF834702A680E499F
:1040300022F0400203462A600C480D4A02F08EFC32
:1040400020B1064A377013682344DBE76B6943F0FD
:1040500080036B612046D7E7202B00201C2B00201B
:10406000A476020800100140212B0020642B0020C0
:1040700004100140704710B50421044621F079FE78
:10408000204610BD08B503290FD8DFE801F00A0269
:10409000060A01F04BFC406808BD01F047FC80684F
:1040A000FAE701F043FC0068F6E70020F4E70000BF
:1040B000004870470C8402080120704713B50024A3
:1040C00051B1036801948DF8034001AA9C680DF179
:1040D0000303A04702B010BD0846FBE7C089704744
:1040E000008A7047C088704780887047807A00F0E7
:1040F0007F007047807AC009704700207047000039
:104100009FED010A704700BF00000000704710B526
:104110000821044621F02DFE204610BD704770474F
:1041200000F598730868496803C370477047704783
:104130004160704770477047064BC0F84C31002310
:10414000C0F8503100F5A273C0F84801C0F8403102
:10415000704700BF45430008012303727047704752
:1041600010B4C26841685410034601EB6200D207E4
:1041700048BF0A599B685DF8044B48BFD35818479D
:104180000346406830B19A681AB9D86800F0010057
:1041900070470120704710B50C21044621F0E9FD5D
:1041A000204610BD10B51021044621F0E2FD204646
:1041B00010BD10B54FF4AE71044621F0DAFD204673
:1041C00010BD10B50EF0E2F80368BDE81040DB6BDF
:1041D000184710B50446D0F8400158B10368DB68B1
:1041E000984738B1D4F8400103689B68984700238A
:1041F000C4F8403110BD00002DE9F14FD0E9556AF7
:104200000746B06803681B6A9847B0F5A95F05D2F6
:10421000444B454AA321454821F0BEFD7068036820
:104220001B6A98470F2803D8414B3F4AA421F2E765
:10423000F06803681B6A98470B2803D83D4B3A4A3D
:10424000A521E8E70EF0A2F8DFF8F09004300EF0B8
:10425000C2F8D9F8000010B10368DB689847D9F8B4
:10426000000010B103681B689847DFF8D480D8F8C5
:10427000000010B103685B699847D7F83C0110B1A2
:1042800003685B689847D8F8000010B103681B68A2
:104290009847D7F83C0110B103689B689847F068CD
:1042A000036800215B6A98474FF0000B224BC0F86F
:1042B00004B0044680F808B00360B068036859464B
:1042C0005B6A9847054601F0F1FE7068036859463D
:1042D0005B6A98472946064601F0A2FE331DC7F8DF
:1042E0003C61C9F80040C8F80050CAF800302B689B
:1042F000C6F808A02846DB68EE6398473368304666
:104300001B6898472146284610F05DFA236820462E
:104310001B69984723685B69204601B0BDE8F04FF0
:10432000184700BFB97602084777020819780208D3
:104330006078020803790208A4840208203A012068
:10434000243A01202DE9F14FD0E9556A0746B068BB
:1043500003681B6A984740F25B43984205D8444B78
:10436000444AA321444821F017FD706803681B6A82
:1043700098470F2803D8414B3E4AA421F2E7F06842
:1043800003681B6A98470B2803D83D4B394AA5217F
:10439000E8E70DF0FBFFDFF8F09004300EF01BF8BB
:1043A000D9F8000010B10368DB689847D9F800001D
:1043B00010B103681B689847DFF8D080D8F8000078
:1043C00010B103685B699847D7F83C0110B10368E6
:1043D0005B689847D8F8000010B103681B689847DD
:1043E000D7F83C0110B103689B689847F0680368F0
:1043F00000215B6A98474FF0000B224BC0F804B0D5
:10440000044680F808B00360B068036859465B6AE8
:104410009847054601F0FAFB7068036859465B6AE5
:1044200098472946064601F097FB331DC7F83C61C3
:10443000C9F80040C8F80050CAF800302B68C6F828
:1044400008A02846DB68EE639847336830461B684F
:1044500098472146284610F0B6F9236820461B6984
:10446000984723685B69204601B0BDE8F04F1847C4
:10447000B9760208A679020819780208607802085D
:1044800003790208A4840208203A0120243A01207A
:10449000044B1B6893F85C200AB1186D00B998684A
:1044A000704700BFD8390120F8B5174604460E46BC
:1044B0000EF032F8124B1C60124B2360124B002599
:1044C000C4E95135114BC4E95355186803680121FB
:1044D0009B68C4E94F55C4E955769847284601F0D2
:1044E000D9F9FFF7D5FF18F0FCFDFFF7D1FF18F061
:1044F00073FEFFF7CDFF18F07BFE2046F8BD00BF2E
:10450000283A01205084020838840208D839012052
:10451000064BC0F84C310023C0F8503100F5A273AF
:10452000C0F84801C0F84031704700BF454300085B
:10453000064BC0F84C310023C0F8503100F5A2738F
:10454000C0F84801C0F84031704700BFF941000889
:10455000406A7047806A704770478A880B8810B538
:10456000D20A4C88C1699BB251F8220043EA044345
:10457000184410BD10B50446BAB1107B68B1537B26
:10458000D27A1B0203F4E0631A43236A03EB82032B
:104590001A888A4202D193F9020010BD05D8013869
:1045A00080B204330028F3D1F7E70020F5E710B517
:1045B0002C21044621F0DDFB204610BD30B58BB028
:1045C0000446BDF860500895BDF85C5007959DF80D
:1045D000505006959DF84C5005959DF8485004950F
:1045E0009DF8445003959DF8405002959DF83C502D
:1045F0000195BDF8385000950FF08AFC064B2360FA
:10460000159BE361169B2362199B63621A9BA3624D
:1046100020460BB030BD00BFC88402087047704709
:1046200070477047704730B5036885B06D460181AB
:10463000D3F88430014604462846984795E8070099
:104640003C3484E8070005B030BD30B5036885B060
:104650006D464181D3F88430014604462846984788
:1046600095E807003C3484E8070005B030BD00221F
:10467000028042808280C280704780F83610704786
:1046800070B5036804461B6B154698472368294696
:1046900020465B6EBDE87040184700207047806C74
:1046A000704770477047704710B54C21044621F0A1
:1046B00060FB204610BD10B54FF45471044621F044
:1046C00058FB204610BD08B5FCF724FD08BD0000CE
:1046D000036870B55E6B124B1B6804468DB22BB934
:1046E000104B114A6C21114821F056FB1049828D64
:1046F0000988914203D80F4B0B4A6D21F3E713F859
:1047000012200D4B1B6853F8220003681B6B98475F
:10471000291A3346204609B2BDE87040184700BF49
:10472000383A0120787A0208BA7A0208F57A020843
:104730002C3A01203C7B0208303A012008B529B907
:104740000DF024FEBDE80840FFF7F2BE08BD0022D0
:104750004FF0FF31C0E900218260704770B50368F7
:1047600004461B6B154698472368294620465B6B19
:10477000BDE87040184700004FF4807181840D49F6
:1047800001600D4981624FF6FF7181854FF47F0111
:10479000002241634FF0FF31C0E90122C0E903224A
:1047A000C0E90522C0E90722C0E9101202630287AE
:1047B000C2637047B88E02082884020810B5044608
:1047C000FFF7DAFF024B23600023A364204610BDED
:1047D000308502082DE9F04F04468BB00FF058FEEB
:1047E0003D4B23603D4BDFF810A10026C4E9103695
:1047F0004FF4807304F16C09A4F86430FF2384F84B
:104800006630C4E91266C4E91466C4E91666E66354
:104810002666A666484604F1B808FFF7CFFF404673
:10482000FFF7CCFF04F5827318460093FFF7C6FF2D
:1048300004F5A87318460193FFF7C0FF04F5CE7383
:1048400018460293FFF7BAFF04F5F473184604F113
:1048500040050393FFF790FF324628463146FFF7A5
:104860007DFF2846F021FCF7A9FB28464FF4A071F4
:10487000FCF7A6FB271D4FF07F43A3662946384669
:1048800006F085FE502219214846FFF767FF144BBA
:10489000C4F89C30E36EA4F8A06004ADD3F8843073
:1048A00049462846984795E8070004F1A80383E89D
:1048B0000700DAF8003004F50C7B2BB9094B0A4AE3
:1048C00060210A4821F068FA094B1B88072B15D88C
:1048D000084B054A6121F4E7C0850208488F0208A9
:1048E0008CE65AFF787A02087A7B0208F57A020889
:1048F0002C3A01203C7B0208383A0120A24B0721C8
:10490000186801F003F8A14A03461421584611F033
:10491000CEF94846C4F8B4B00AF0E6FFDFF87CB23E
:10492000CDF820B00D23484608A9ADF824300AF090
:10493000FBFF4946384606F02AFE5022A621404693
:10494000FFF70CFF924BC4F8E830D4F8B830A4F865
:10495000EC60D3F8843041462846984795E8070034
:1049600004F1F40383E80700DAF8003004F516795F
:10497000002BA3D0874A1388062BA9D9824B062186
:10498000186800F0C3FF814A03461421484611F01D
:104990008EF94046C4F800910AF0A6FF0A2340466B
:1049A00008A9ADF82430CDF820B00AF0BDFF41468B
:1049B000384606F0ECFD94220098DFF8E4810B21E4
:1049C000FFF7CCFED4F804310099D3F88430C4F852
:1049D00034812846A4F83861984795E8070004F523
:1049E000A07383E80700DAF8003004F52079002B83
:1049F0003FF464AF674A1388052B7FF669AF624BBB
:104A00000521186800F082FF604A034620214846CD
:104A100011F04DF90098C4F84C910AF065FF092394
:104A20000098ADF8243008A9CDF820B00AF07CFF3A
:104A30000099384606F0ABFDCE2201980B21FFF716
:104A40008DFED4F850310199D3F88430C4F88081B8
:104A50002846A4F88461984795E8070004F5C673D2
:104A600083E80700DAF8003004F53078002B3FF4D3
:104A700025AF484A1388012B7FF62AAF424B01210C
:104A8000186800F043FF414A03462021404611F0D8
:104A90000EF90198C4F898810AF026FF02230198C4
:104AA000ADF8243008A9CDF820B00AF03DFF0199F7
:104AB000384606F06CFD40F2011202983C21FFF7E7
:104AC0004DFE354BC4F8CC31D4F89C310299D3F863
:104AD0008430A4F8D0612846984795E8070004F58B
:104AE000EC7383E80700DAF8003004F54075002B1A
:104AF0003FF4E4AE274A1388042B7FF6E9AE224B3D
:104B00000421186800F002FF204A034628212846A5
:104B100011F0CDF80298C4F8E4510AF0E5FE08233C
:104B20000298ADF8243008A9CDF820B00AF0FCFEB8
:104B30000299384606F02BFD039816221C21FFF738
:104B40000DFE4FF0FF33C4F8183204AD0023039973
:104B5000A4F81C3228460AF013FC95E80700039BD2
:104B6000CDF820B03C3383E8070003230398ADF869
:104B7000243008A90AF0D8FE3846039906F007FD4C
:104B800020460BB0BDE8F08F343A0120C57B020807
:104B9000FFBE3CFF2C3A012050D2FFFF28840208C0
:104BA000F5F0EBFF806A704780F82C10704710B466
:104BB0000368046BD3F8A430624361435DF8044B8F
:104BC0001847D0ED0C7A0368F8EEE77A10B420EEBF
:104BD000270AD3F8A440B5EEC00AF1EE10FA1ADBAA
:104BE000B6EE007A30EE070ABDEEC07A17EE101A64
:104BF00060EEA70AF5EEC00AF1EE10FA1EDBF6EE43
:104C0000007A70EEA70AFDEEE07A17EE902A2346AE
:104C10005DF8044B1847BDEEC07AF8EEC76A17EE90
:104C2000103A30EE660AF7EE086A30EE260A013BCB
:104C3000BDEEC00A10EE101A1944D9E7FDEEE07A75
:104C4000B8EEE77A17EE903A70EEC70AB7EE087A38
:104C500070EE870A013BFDEEE00A10EE902A1A443E
:104C6000D5E710B40368046BD3F8B03062435DF845
:104C7000044B1847D0ED0C7A0368F8EEE77A10B4CD
:104C800027EE800AD3F8B040B5EEC00AF1EE10FA74
:104C90000BDBF6EE007A30EE270AFDEEC07A17EE57
:104CA000902A23465DF8044B1847FDEEC07AB8EE13
:104CB000E77A17EE903A30EE470AB7EE087A30EE10
:104CC000070A013BBDEEC00A10EE102A1A44E8E7BD
:104CD00010B40368446BD3F8BC30624361435DF8A1
:104CE000044B1847D0ED0D7A0368F8EEE77A10B45C
:104CF00020EE270AD3F8BC40B5EEC00AF1EE10FA58
:104D00001ADBB6EE007A30EE070ABDEEC07A17EE77
:104D1000101A60EEA70AF5EEC00AF1EE10FA1EDBDB
:104D2000F6EE007A70EEA70AFDEEE07A17EE902A12
:104D300023465DF8044B1847BDEEC07AF8EEC76A0B
:104D400017EE103A30EE660AF7EE086A30EE260AE1
:104D5000013BBDEEC00A10EE101A1944D9E7FDEE72
:104D6000E07AB8EEE77A17EE903A70EEC70AB7EE3F
:104D7000087A70EE870A013BFDEEE00A10EE902AF9
:104D80001A44D5E710B40368446BD3F8C0306243CB
:104D90005DF8044B1847D0ED0D7A0368F8EEE77A1A
:104DA00010B427EE800AD3F8C040B5EEC00AF1EE89
:104DB00010FA0BDBF6EE007A30EE270AFDEEC07A31
:104DC00017EE902A23465DF8044B1847FDEEC07A93
:104DD000B8EEE77A17EE903A30EE470AB7EE087A67
:104DE00030EE070A013BBDEEC00A10EE102A1A444D
:104DF000E8E7D0F82C31026B002B07DB02EB430015
:104E000090FBF2F000EBD070401070476FF00101A2
:104E100001FB0320013890FBF2F000EBD070401052
:104E200040427047D0ED4B7A90ED0C0AF8EEE77AED
:104E3000B8EEC00A87EE800A7047D0F82C017047A0
:104E4000D0F83031026B002B07DB02EB430090FB04
:104E5000F2F000EBD070401070476FF0010101FBE1
:104E60000320013890FBF2F000EBD070401040427C
:104E70007047D0ED4C7A90ED0C0AF8EEE77AB8EE78
:104E8000C00A87EE800A7047D0F830017047D0F82A
:104E90003431426B002B07DB02EB430090FBF2F056
:104EA00000EBD070401070476FF0010101FB032050
:104EB000013890FBF2F000EBD07040104042704798
:104EC000D0ED4D7A90ED0D0AF8EEE77AB8EEC00A13
:104ED00087EE800A7047D0F834017047D0F8383137
:104EE000426B002B07DB02EB430090FBF2F000EB80
:104EF000D070401070476FF0010101FB03200138B2
:104F000090FBF2F000EBD070401040427047D0EDC3
:104F10004E7A90ED0D0AF8EEE77AB8EEC00A87EE09
:104F2000800A7047D0F83801704770B503680446AE
:104F3000D3F888300D4616469847236832462946EE
:104F40002046D3F89030BDE8704018470368D3F886
:104F5000943018470368D3F8D43018470368D3F85F
:104F6000E03018470368002A10B4D3F8A430046B6B
:104F70000EDB04EB420292FBF4F101EBD17149101C
:104F8000B0F91E215DF8044B013A0A444942184722
:104F90006FF0010101FB0241013991FBF4F101EBDA
:104FA000D17149104942EBE70368D3F83C31184707
:104FB000026B03685143D3F8483118470368D3F8AC
:104FC00044311847D0ED0C7A0368F8EEE77AD3F84D
:104FD000482127EE800AB5EEC00AF1EE10FA08DB90
:104FE000F6EE007A30EE270AFDEEC07A17EE901A40
:104FF0001047FDEEC07AB8EEE77A17EE903A30EE41
:10500000470AB7EE087A30EE070A013BBDEEC00A48
:1050100010EE101A1944EBE7C0F83C117047036812
:10502000D3F850311847036810B5D3F85C31044603
:1050300098470028236B07DB03EB400090FBF3F05D
:1050400000EBD070401010BD6FF0010202FB003089
:10505000013890FBF3F000EBD07040104042F2E7D3
:105060000368D3F858311847036810B5D3F85C319A
:105070000446984794ED0C0A07EE900AB8EEC00A71
:10508000F8EEE77A87EE800A10BDD0F83C01704751
:10509000026B03685143D3F868311847D0ED0C7A9E
:1050A0000368F8EEE77AD3F8682127EE800AB5EEB8
:1050B000C00AF1EE10FA08DBF6EE007A30EE270AAD
:1050C000FDEEC07A17EE901A1047FDEEC07AB8EEEA
:1050D000E77A17EE903A30EE470AB7EE087A30EEEC
:1050E000070A013BBDEEC00A10EE101A1944EBE7A7
:1050F000C0F840117047036810B5D3F87431044606
:1051000098470028236B07DB03EB400090FBF3F08C
:1051100000EBD070401010BD6FF0010202FB0030B8
:10512000013890FBF3F000EBD07040104042F2E702
:10513000036810B5D3F874310446984794ED0C0A0F
:1051400007EE900AB8EEC00AF8EEE77A87EE800A1A
:1051500010BDD0F840017047084670470368026BE5
:10516000D3F88431002910B504460EDB02EB41016F
:1051700091FBF2F101EBD171491009B22046984739
:10518000D4E94F2302FB003010BD6FF0010000FB9B
:105190000121013991FBF2F101EBD1714910494232
:1051A000EBE7006B7047406B70470368D3F84831FA
:1051B00018470368D3F85C311847026B0368514302
:1051C000D3F814311847036870B5D3F81851D3F8E1
:1051D0008031D0F84461044698472B4656F8201099
:1051E0002046BDE8704018477047704710B54FF42F
:1051F0003871044620F0BDFD204610BD10B5034BAC
:10520000036004460BF0E0FA204610BD8C870208CC
:1052100010B5064B036004460BF0D6FA204641F267
:105220000C5120F0A6FD204610BD00BF8C8702085F
:1052300008B590F82C300BB1FBF76CFF08BD0000EF
:105240000A1E10B503DBB0F91E41944206DC084B80
:10525000084A094840F2396120F09EFD0368D0F801
:105260004441D3F88031984754F8200010BD00BF66
:10527000C87B0208EB7B02083A7C02080B1E10B5C3
:10528000044603DBB0F91E219A4206DC074B084AAC
:10529000084840F2336120F07FFD0368D3F8843181
:1052A0009847D4E94F2302FB003010BDC87B0208A9
:1052B000977C02083A7C020808B529B90DF066F817
:1052C000BDE80840FFF724B908BD70B504461D4687
:1052D000BDF91060FFF742FA2368294620469B6B10
:1052E0009847236831462046DB6BBDE8704018477D
:1052F00037B501AB15460EF00EFF00284FEA4014FB
:1053000001992A464FF0200004DB0EF026FF2044CE
:1053100003B030BD0EF021FF201AF9E770B5B0F8E8
:105320001A31B0F91441B0F842502344ED1AD0E9D3
:105330004D320E462DB2D21A691EF01AFFF7D8FF71
:105340002C44013CC0EB441070BD38B504460D46FA
:10535000B4F81631B4F818110B44B4F84010D0E981
:105360004B02C91A09B2121A0139281AFFF7C0FFF5
:10537000B4F9163100EB431038BD000038B5642194
:10538000044609F051FB0A4B236000250123C4E9C0
:105390004F3504F5A873C4E95135204663222946E8
:1053A000FFF705FC034BA4F84C512360204638BDA1
:1053B000A48C0208F48502082DE9F04F04468DB054
:1053C0000FF066F8954B2360954BDFF86C82002553
:1053D00004F16C07C4E910354FF4807BFF23A4F877
:1053E00064B084F86630C4E91255C4E91455C4E9C0
:1053F0001655E5632566A5663846FFF7BFFF04F539
:1054000053731846049308F0A3FF864BC4F84C333B
:105410004FF0020A04F55F7304F5647608F124097D
:10542000184684F878A30393FBF7A2FEC4F87C83A4
:10543000C4F88493C4F888533046FFF79FFF04F5FF
:10544000CE631846059308F083FF764BC4F8703698
:1054500004F5D46384F89CA618460293FBF788FEF3
:10546000714BC4F8B436714BC4F8DC364FF6FF7399
:10547000A4F8E0364FF0FF324FF47F03C4F8A08663
:10548000C4F8A896A4F8D8B6C4F8E836C4F8F42648
:1054900004F2FC60C4F8AC56C4F8B856C4F8BC5664
:1054A000C4F8C056C4F8C456C4F8C856C4F8CC569C
:1054B000C4F8D056C4F8D456C4F8E456A4F8EC5650
:1054C000C4F8F056C4F8F8564FF461610BF072F965
:1054D00004F1400B4FF4A0732A4600932946584626
:1054E000F023FFF7F2FE04F104084FF07F43A366B8
:1054F000594640464FF0600B06F049F8F023294624
:105500003846CDF800B0C522FFF7DFFE2A46384600
:105510000121FFF70AFD2B462A4629463846009509
:1055200009F032FA2B462A4629463846009509F0FA
:1055300061F93846E6223C21FFF7CAFB3C4B039A4F
:10554000C4F8883341F2B843A4F88C33C4F8742308
:10555000049984F878A3384609F057F9394640464B
:1055600006F015F8F02329463046CDF800B0402269
:10557000FFF7ABFE2A4630460A21FFF7D6FC2B4642
:105580002A4629463046009509F0FEF92B462A4660
:1055900029463046009509F02DF93046692246210A
:1055A000FFF796FB234B029AC4F8AC3643F622630E
:1055B000A4F8B036C4F89826059984F89CA630461D
:1055C00009F023F904F2B4693146404605F0DFFFE3
:1055D000484616221C21FFF7C1F806AE4FF0FF32F5
:1055E000C4F8E42649463046A4F8E85609F0C8FE57
:1055F00096E8070004F5DE6383E807000B4B0A9387
:105600000AA94846ADF82C500AF08EF940464946A2
:1056100005F0BDFF20460DB0BDE8F08F8C87020875
:10562000488F02083C8E0208B88E020828840208BF
:10563000C59714FF16C439FF648A0208704700003A
:1056400030B5164D2C6814F001048FB0BFF35B8F9A
:1056500020D1284620F08FFBE0B13F230993104B67
:105660000893104B104911480A940122CDE90643D2
:105670000423CDE903320A230093CDE90B44CDE99D
:1056800001440594FEF79AFF094820F0A3FB284641
:1056900020F07DFB05480FB030BD00BFC42B0020BB
:1056A00074B9020820BB020820B40208C82B0020ED
:1056B0003D5600087047000030B5174D2C6814F0B7
:1056C00001048FB0BFF35B8F22D1284620F053FB3B
:1056D000F0B13F230993114B0893114B079301231A
:1056E000CDE9053304930423CDE9024314230D4986
:1056F00000935F221823CDE90B440B480A940194D0
:10570000FEF75CFF094820F065FB284620F03FFBD0
:1057100005480FB030BD00BFF42B002078B9020857
:1057200024BB020830B40208F82B0020B55600084C
:105730007047000030B5164D2C6814F001048FB08E
:10574000BFF35B8F20D1284620F015FBE0B13F234B
:105750000993104B0893104B104911480A940122E9
:10576000CDE906430423CDE9033228230093CDE994
:105770000B44CDE901440594FEF720FF094820F0D1
:1057800029FB284620F003FB05480FB030BD00BFC1
:10579000242C00201CBB020828BB020864B90208A4
:1057A000282C002031570008002070470020704747
:1057B0000EB403B503AB002153F8042B01930DF095
:1057C0002BFE02B05DF804EB03B070470CB407B5D4
:1057D00004AB53F8042B01930DF01EFE03B05DF8EB
:1057E00004EB02B070470000436C10B5044673B37D
:1057F000038F2BB9184B194AC521194820F0CCFA50
:10580000C38E00EB43035B8C0BB30FF0EDFC238FD7
:10581000012B03D8134B144ACB21EEE7E28E531C25
:105820009BB2092B194688BFA3F10A0104EB410181
:1058300040F63F10498C814209D10A2B04EB420209
:1058400028BF002304EB4303508C58845184204626
:10585000BDE810400FF0CBBBE67C0208EF7C0208ED
:105860009A7D0208E47D0208F27D02080FF087BBF2
:1058700010B586B002AC84E806001A460AAB059360
:105880000193099B00932146089B0CF040F906B058
:1058900010BD000038B518BB124B13481C681349E3
:1058A000B4B1226822440260626822440A60A2689D
:1058B00014440F4B00221A8000F038F8054600F01F
:1058C00033F80C4B1C600C4B1D600C4B188007E030
:1058D0000B4B03600B4B0B600B4B1C68002CE8D18F
:1058E00038BD00BF602C0020582C0020542C002014
:1058F0005C2C0020383A0120303A01202C3A01205B
:1059000064BB02082CBB0208B8870208044B1B6862
:1059100053F82100034B1B6803EB4000704700BFA6
:10592000542C0020582C00200E207047004870474F
:10593000642C002010B5FFF7BFFE044C2060FFF779
:10594000F9FE6060FFF77CFEA06010BD642C0020B3
:1059500010B5002404600C6014601C6010BD70471A
:1059600010B54FF4AE71044620F003FA204610BD86
:1059700010B50446D0F8580100F04AF82046BDE8BA
:1059800010400CF089BD000010B50446FEF78CFDF8
:10599000014B2360204610BDC48702080022C0E9E5
:1059A00000228260C0F80C25704791F82C3073B348
:1059B00091F82A305BB391F82B3043B30B6833B3C3
:1059C0008268934223D0B1F90AC0836007EE90CA7F
:1059D000B0F80E35B1F90C10F8EEE77A00EB83025F
:1059E000C2ED037A07EE901AF8EEE77A0133C2EDC2
:1059F000A37AA022B3FBF2F102FB1133A0F80E351B
:105A0000B0F80C359F2B9CBF0133A0F80C357047C4
:105A100030B503689FB00446002B5CD00FA8FDF79B
:105A2000BDFD0F9D63689D4255D030220021656009
:105A300003A820F0EEFB109B02939DF844300195E3
:105A40005A1E062A88BF00238DF80C30BDF8463058
:105A5000ADF80E30BDF84830149AADF810309DF80E
:105A60004A308DF812300692BDF84C30159AADF8D8
:105A7000143007929DF86830169A08928DF83030ED
:105A8000179A9DF86B3009928DF83130189A9DF86D
:105A90006C300A928DF83230199ABDF86E300B9244
:105AA000ADF83430BDF87030ADF836309DF8733055
:105AB0008DF838309DF874308DF8393001A99DF893
:105AC00075308DF83A302046FFF76FFF2068036885
:105AD00001A99B6898471FB030BDF0B5B0F80C65C0
